{
  "_format": "hh-sol-artifact-1",
  "contractName": "AuthenX",
  "sourceName": "contracts/AuthenX.sol",
  "abi": [
    {
      "inputs": [],
      "stateMutability": "nonpayable",
      "type": "constructor"
    },
    {
      "anonymous": false,
      "inputs": [
        {
          "indexed": true,
          "internalType": "address",
          "name": "personWallet",
          "type": "address"
        },
        {
          "indexed": true,
          "internalType": "address",
          "name": "orgWallet",
          "type": "address"
        },
        {
          "indexed": false,
          "internalType": "string",
          "name": "docType",
          "type": "string"
        },
        {
          "indexed": false,
          "internalType": "string",
          "name": "docHash",
          "type": "string"
        }
      ],
      "name": "DocumentIssued",
      "type": "event"
    },
    {
      "anonymous": false,
      "inputs": [
        {
          "indexed": true,
          "internalType": "address",
          "name": "personWallet",
          "type": "address"
        },
        {
          "indexed": false,
          "internalType": "string",
          "name": "docHash",
          "type": "string"
        }
      ],
      "name": "DocumentRevoked",
      "type": "event"
    },
    {
      "anonymous": false,
      "inputs": [
        {
          "indexed": true,
          "internalType": "address",
          "name": "orgWallet",
          "type": "address"
        },
        {
          "indexed": false,
          "internalType": "string",
          "name": "name",
          "type": "string"
        }
      ],
      "name": "OrgApproved",
      "type": "event"
    },
    {
      "anonymous": false,
      "inputs": [
        {
          "indexed": true,
          "internalType": "address",
          "name": "orgWallet",
          "type": "address"
        }
      ],
      "name": "OrgRevoked",
      "type": "event"
    },
    {
      "inputs": [
        {
          "internalType": "address",
          "name": "_orgWallet",
          "type": "address"
        },
        {
          "internalType": "string",
          "name": "_orgName",
          "type": "string"
        }
      ],
      "name": "approveOrg",
      "outputs": [],
      "stateMutability": "nonpayable",
      "type": "function"
    },
    {
      "inputs": [],
      "name": "getAllDocuments",
      "outputs": [
        {
          "components": [
            {
              "internalType": "string",
              "name": "personName",
              "type": "string"
            },
            {
              "internalType": "address",
              "name": "personWallet",
              "type": "address"
            },
            {
              "internalType": "string",
              "name": "docType",
              "type": "string"
            },
            {
              "internalType": "string",
              "name": "orgName",
              "type": "string"
            },
            {
              "internalType": "address",
              "name": "orgWallet",
              "type": "address"
            },
            {
              "internalType": "uint256",
              "name": "issuedAt",
              "type": "uint256"
            },
            {
              "internalType": "string",
              "name": "docHash",
              "type": "string"
            },
            {
              "internalType": "bool",
              "name": "valid",
              "type": "bool"
            }
          ],
          "internalType": "struct AuthenX.Document[]",
          "name": "",
          "type": "tuple[]"
        }
      ],
      "stateMutability": "view",
      "type": "function"
    },
    {
      "inputs": [
        {
          "internalType": "address",
          "name": "_orgWallet",
          "type": "address"
        }
      ],
      "name": "getDocumentsByOrg",
      "outputs": [
        {
          "components": [
            {
              "internalType": "string",
              "name": "personName",
              "type": "string"
            },
            {
              "internalType": "address",
              "name": "personWallet",
              "type": "address"
            },
            {
              "internalType": "string",
              "name": "docType",
              "type": "string"
            },
            {
              "internalType": "string",
              "name": "orgName",
              "type": "string"
            },
            {
              "internalType": "address",
              "name": "orgWallet",
              "type": "address"
            },
            {
              "internalType": "uint256",
              "name": "issuedAt",
              "type": "uint256"
            },
            {
              "internalType": "string",
              "name": "docHash",
              "type": "string"
            },
            {
              "internalType": "bool",
              "name": "valid",
              "type": "bool"
            }
          ],
          "internalType": "struct AuthenX.Document[]",
          "name": "",
          "type": "tuple[]"
        }
      ],
      "stateMutability": "view",
      "type": "function"
    },
    {
      "inputs": [
        {
          "internalType": "address",
          "name": "_personWallet",
          "type": "address"
        }
      ],
      "name": "getDocumentsByPerson",
      "outputs": [
        {
          "components": [
            {
              "internalType": "string",
              "name": "personName",
              "type": "string"
            },
            {
              "internalType": "address",
              "name": "personWallet",
              "type": "address"
            },
            {
              "internalType": "string",
              "name": "docType",
              "type": "string"
            },
            {
              "internalType": "string",
              "name": "orgName",
              "type": "string"
            },
            {
              "internalType": "address",
              "name": "orgWallet",
              "type": "address"
            },
            {
              "internalType": "uint256",
              "name": "issuedAt",
              "type": "uint256"
            },
            {
              "internalType": "string",
              "name": "docHash",
              "type": "string"
            },
            {
              "internalType": "bool",
              "name": "valid",
              "type": "bool"
            }
          ],
          "internalType": "struct AuthenX.Document[]",
          "name": "",
          "type": "tuple[]"
        }
      ],
      "stateMutability": "view",
      "type": "function"
    },
    {
      "inputs": [
        {
          "internalType": "string",
          "name": "_personName",
          "type": "string"
        },
        {
          "internalType": "address",
          "name": "_personWallet",
          "type": "address"
        },
        {
          "internalType": "string",
          "name": "_docType",
          "type": "string"
        },
        {
          "internalType": "string",
          "name": "_docHash",
          "type": "string"
        }
      ],
      "name": "issueDocument",
      "outputs": [],
      "stateMutability": "nonpayable",
      "type": "function"
    },
    {
      "inputs": [
        {
          "internalType": "address",
          "name": "",
          "type": "address"
        }
      ],
      "name": "organizations",
      "outputs": [
        {
          "internalType": "string",
          "name": "name",
          "type": "string"
        },
        {
          "internalType": "address",
          "name": "wallet",
          "type": "address"
        },
        {
          "internalType": "bool",
          "name": "approved",
          "type": "bool"
        }
      ],
      "stateMutability": "view",
      "type": "function"
    },
    {
      "inputs": [],
      "name": "owner",
      "outputs": [
        {
          "internalType": "address",
          "name": "",
          "type": "address"
        }
      ],
      "stateMutability": "view",
      "type": "function"
    },
    {
      "inputs": [
        {
          "internalType": "address",
          "name": "_personWallet",
          "type": "address"
        },
        {
          "internalType": "string",
          "name": "_docHash",
          "type": "string"
        }
      ],
      "name": "revokeDocument",
      "outputs": [],
      "stateMutability": "nonpayable",
      "type": "function"
    },
    {
      "inputs": [
        {
          "internalType": "address",
          "name": "_orgWallet",
          "type": "address"
        }
      ],
      "name": "revokeOrg",
      "outputs": [],
      "stateMutability": "nonpayable",
      "type": "function"
    },
    {
      "inputs": [
        {
          "internalType": "address",
          "name": "_personWallet",
          "type": "address"
        },
        {
          "internalType": "string",
          "name": "_docHash",
          "type": "string"
        }
      ],
      "name": "verifyDocument",
      "outputs": [
        {
          "internalType": "bool",
          "name": "",
          "type": "bool"
        }
      ],
      "stateMutability": "view",
      "type": "function"
    }
  ],
  "bytecode": "0x608060405234801561001057600080fd5b50336000806101000a81548173ffffffffffffffffffffffffffffffffffffffff021916908373ffffffffffffffffffffffffffffffffffffffff1602179055506130d5806100606000396000f3fe608060405234801561001057600080fd5b506004361061009e5760003560e01c8063751f310a11610066578063751f310a1461016d5780637dc9704a146101895780638da5cb5b146101a5578063911beb94146101c35780639fa5f50b146101f35761009e565b806317cc3d86146100a35780632f4895d8146100bf57806354868ffa146100db5780635a1f74061461010b578063641ee9d51461013d575b600080fd5b6100bd60048036038101906100b89190612499565b610211565b005b6100d960048036038101906100d4919061260c565b6103d6565b005b6100f560048036038101906100f09190612499565b6106b2565b60405161010291906128b1565b60405180910390f35b61012560048036038101906101209190612499565b610a6a565b6040516101349392919061293b565b60405180910390f35b6101576004803603810190610152919061260c565b610b49565b6040516101649190612979565b60405180910390f35b61018760048036038101906101829190612994565b610f8f565b005b6101a3600480360381019061019e919061260c565b61154c565b005b6101ad61188e565b6040516101ba9190612a4f565b60405180910390f35b6101dd60048036038101906101d89190612499565b6118b2565b6040516101ea91906128b1565b60405180910390f35b6101fb611c6a565b60405161020891906128b1565b60405180910390f35b60008054906101000a900473ffffffffffffffffffffffffffffffffffffffff1673ffffffffffffffffffffffffffffffffffffffff163373ffffffffffffffffffffffffffffffffffffffff161461029f576040517f08c379a000000000000000000000000000000000000000000000000000000000815260040161029690612adc565b60405180910390fd5b60011515600160008373ffffffffffffffffffffffffffffffffffffffff1673ffffffffffffffffffffffffffffffffffffffff16815260200190815260200160002060010160149054906101000a900460ff16151514610335576040517f08c379a000000000000000000000000000000000000000000000000000000000815260040161032c90612b48565b60405180910390fd5b6000600160008373ffffffffffffffffffffffffffffffffffffffff1673ffffffffffffffffffffffffffffffffffffffff16815260200190815260200160002060010160146101000a81548160ff0219169083151502179055508073ffffffffffffffffffffffffffffffffffffffff167f3d612f610cda5956ab1c81ba03e65f38ef48ace98936fc6568d5affab3b05da460405160405180910390a250565b60008054906101000a900473ffffffffffffffffffffffffffffffffffffffff1673ffffffffffffffffffffffffffffffffffffffff163373ffffffffffffffffffffffffffffffffffffffff1614610464576040517f08c379a000000000000000000000000000000000000000000000000000000000815260040161045b90612adc565b60405180910390fd5b60405180606001604052808281526020018373ffffffffffffffffffffffffffffffffffffffff16815260200160011515815250600160008473ffffffffffffffffffffffffffffffffffffffff1673ffffffffffffffffffffffffffffffffffffffff16815260200190815260200160002060008201518160000190816104ec9190612d74565b5060208201518160010160006101000a81548173ffffffffffffffffffffffffffffffffffffffff021916908373ffffffffffffffffffffffffffffffffffffffff16021790555060408201518160010160146101000a81548160ff0219169083151502179055509050506000805b6004805490508110156105f5578373ffffffffffffffffffffffffffffffffffffffff166004828154811061059357610592612e46565b5b9060005260206000200160009054906101000a900473ffffffffffffffffffffffffffffffffffffffff1673ffffffffffffffffffffffffffffffffffffffff16036105e257600191506105f5565b80806105ed90612ea4565b91505061055b565b508061065f576004839080600181540180825580915050600190039060005260206000200160009091909190916101000a81548173ffffffffffffffffffffffffffffffffffffffff021916908373ffffffffffffffffffffffffffffffffffffffff1602179055505b8273ffffffffffffffffffffffffffffffffffffffff167fdaea8d45f0f994681bf5879ac0023ee819673ddce879a2cfbca58961e7208472836040516106a59190612eec565b60405180910390a2505050565b6060600260008373ffffffffffffffffffffffffffffffffffffffff1673ffffffffffffffffffffffffffffffffffffffff168152602001908152602001600020805480602002602001604051908101604052809291908181526020016000905b82821015610a5f57838290600052602060002090600802016040518061010001604052908160008201805461074790612b97565b80601f016020809104026020016040519081016040528092919081815260200182805461077390612b97565b80156107c05780601f10610795576101008083540402835291602001916107c0565b820191906000526020600020905b8154815290600101906020018083116107a357829003601f168201915b505050505081526020016001820160009054906101000a900473ffffffffffffffffffffffffffffffffffffffff1673ffffffffffffffffffffffffffffffffffffffff1673ffffffffffffffffffffffffffffffffffffffff16815260200160028201805461082f90612b97565b80601f016020809104026020016040519081016040528092919081815260200182805461085b90612b97565b80156108a85780601f1061087d576101008083540402835291602001916108a8565b820191906000526020600020905b81548152906001019060200180831161088b57829003601f168201915b505050505081526020016003820180546108c190612b97565b80601f01602080910402602001604051908101604052809291908181526020018280546108ed90612b97565b801561093a5780601f1061090f5761010080835404028352916020019161093a565b820191906000526020600020905b81548152906001019060200180831161091d57829003601f168201915b505050505081526020016004820160009054906101000a900473ffffffffffffffffffffffffffffffffffffffff1673ffffffffffffffffffffffffffffffffffffffff1673ffffffffffffffffffffffffffffffffffffffff168152602001600582015481526020016006820180546109b390612b97565b80601f01602080910402602001604051908101604052809291908181526020018280546109df90612b97565b8015610a2c5780601f10610a0157610100808354040283529160200191610a2c565b820191906000526020600020905b815481529060010190602001808311610a0f57829003601f168201915b505050505081526020016007820160009054906101000a900460ff16151515158152505081526020019060010190610713565b505050509050919050565b6001602052806000526040600020600091509050806000018054610a8d90612b97565b80601f0160208091040260200160405190810160405280929190818152602001828054610ab990612b97565b8015610b065780601f10610adb57610100808354040283529160200191610b06565b820191906000526020600020905b815481529060010190602001808311610ae957829003601f168201915b5050505050908060010160009054906101000a900473ffffffffffffffffffffffffffffffffffffffff16908060010160149054906101000a900460ff16905083565b600080600360008573ffffffffffffffffffffffffffffffffffffffff1673ffffffffffffffffffffffffffffffffffffffff168152602001908152602001600020805480602002602001604051908101604052809291908181526020016000905b82821015610ef7578382906000526020600020906008020160405180610100016040529081600082018054610bdf90612b97565b80601f0160208091040260200160405190810160405280929190818152602001828054610c0b90612b97565b8015610c585780601f10610c2d57610100808354040283529160200191610c58565b820191906000526020600020905b815481529060010190602001808311610c3b57829003601f168201915b505050505081526020016001820160009054906101000a900473ffffffffffffffffffffffffffffffffffffffff1673ffffffffffffffffffffffffffffffffffffffff1673ffffffffffffffffffffffffffffffffffffffff168152602001600282018054610cc790612b97565b80601f0160208091040260200160405190810160405280929190818152602001828054610cf390612b97565b8015610d405780601f10610d1557610100808354040283529160200191610d40565b820191906000526020600020905b815481529060010190602001808311610d2357829003601f168201915b50505050508152602001600382018054610d5990612b97565b80601f0160208091040260200160405190810160405280929190818152602001828054610d8590612b97565b8015610dd25780601f10610da757610100808354040283529160200191610dd2565b820191906000526020600020905b815481529060010190602001808311610db557829003601f168201915b505050505081526020016004820160009054906101000a900473ffffffffffffffffffffffffffffffffffffffff1673ffffffffffffffffffffffffffffffffffffffff1673ffffffffffffffffffffffffffffffffffffffff16815260200160058201548152602001600682018054610e4b90612b97565b80601f0160208091040260200160405190810160405280929190818152602001828054610e7790612b97565b8015610ec45780601f10610e9957610100808354040283529160200191610ec4565b820191906000526020600020905b815481529060010190602001808311610ea757829003601f168201915b505050505081526020016007820160009054906101000a900460ff16151515158152505081526020019060010190610bab565b50505050905060005b8151811015610f82578380519060200120828281518110610f2457610f23612e46565b5b602002602001015160c0015180519060200120148015610f5f5750818181518110610f5257610f51612e46565b5b602002602001015160e001515b15610f6f57600192505050610f89565b8080610f7a90612ea4565b915050610f00565b5060009150505b92915050565b60011515600160003373ffffffffffffffffffffffffffffffffffffffff1673ffffffffffffffffffffffffffffffffffffffff16815260200190815260200160002060010160149054906101000a900460ff16151514611025576040517f08c379a000000000000000000000000000000000000000000000000000000000815260040161101c90612f5a565b60405180910390fd5b6000600160003373ffffffffffffffffffffffffffffffffffffffff1673ffffffffffffffffffffffffffffffffffffffff16815260200190815260200160002060405180606001604052908160008201805461108190612b97565b80601f01602080910402602001604051908101604052809291908181526020018280546110ad90612b97565b80156110fa5780601f106110cf576101008083540402835291602001916110fa565b820191906000526020600020905b8154815290600101906020018083116110dd57829003601f168201915b505050505081526020016001820160009054906101000a900473ffffffffffffffffffffffffffffffffffffffff1673ffffffffffffffffffffffffffffffffffffffff1673ffffffffffffffffffffffffffffffffffffffff1681526020016001820160149054906101000a900460ff161515151581525050905060006040518061010001604052808781526020018673ffffffffffffffffffffffffffffffffffffffff168152602001858152602001836000015181526020013373ffffffffffffffffffffffffffffffffffffffff168152602001428152602001848152602001600115158152509050600260003373ffffffffffffffffffffffffffffffffffffffff1673ffffffffffffffffffffffffffffffffffffffff16815260200190815260200160002081908060018154018082558091505060019003906000526020600020906008020160009091909190915060008201518160000190816112659190612d74565b5060208201518160010160006101000a81548173ffffffffffffffffffffffffffffffffffffffff021916908373ffffffffffffffffffffffffffffffffffffffff16021790555060408201518160020190816112c29190612d74565b5060608201518160030190816112d89190612d74565b5060808201518160040160006101000a81548173ffffffffffffffffffffffffffffffffffffffff021916908373ffffffffffffffffffffffffffffffffffffffff16021790555060a0820151816005015560c082015181600601908161133f9190612d74565b5060e08201518160070160006101000a81548160ff0219169083151502179055505050600360008673ffffffffffffffffffffffffffffffffffffffff1673ffffffffffffffffffffffffffffffffffffffff16815260200190815260200160002081908060018154018082558091505060019003906000526020600020906008020160009091909190915060008201518160000190816113e09190612d74565b5060208201518160010160006101000a81548173ffffffffffffffffffffffffffffffffffffffff021916908373ffffffffffffffffffffffffffffffffffffffff160217905550604082015181600201908161143d9190612d74565b5060608201518160030190816114539190612d74565b5060808201518160040160006101000a81548173ffffffffffffffffffffffffffffffffffffffff021916908373ffffffffffffffffffffffffffffffffffffffff16021790555060a0820151816005015560c08201518160060190816114ba9190612d74565b5060e08201518160070160006101000a81548160ff02191690831515021790555050503373ffffffffffffffffffffffffffffffffffffffff168573ffffffffffffffffffffffffffffffffffffffff167fb28aab4f3e2f5814d80501aba778b6b48691c1500daadf2e45aea6f931b89d71868660405161153c929190612f7a565b60405180910390a3505050505050565b60011515600160003373ffffffffffffffffffffffffffffffffffffffff1673ffffffffffffffffffffffffffffffffffffffff16815260200190815260200160002060010160149054906101000a900460ff161515146115e2576040517f08c379a00000000000000000000000000000000000000000000000000000000081526004016115d990612f5a565b60405180910390fd5b6000600360008473ffffffffffffffffffffffffffffffffffffffff1673ffffffffffffffffffffffffffffffffffffffff168152602001908152602001600020905060005b818054905081101561188857828051906020012082828154811061164f5761164e612e46565b5b906000526020600020906008020160060160405161166d9190613054565b60405180910390201480156116f157503373ffffffffffffffffffffffffffffffffffffffff168282815481106116a7576116a6612e46565b5b906000526020600020906008020160040160009054906101000a900473ffffffffffffffffffffffffffffffffffffffff1673ffffffffffffffffffffffffffffffffffffffff16145b1561187557600082828154811061170b5761170a612e46565b5b906000526020600020906008020160070160006101000a81548160ff0219169083151502179055506000600260003373ffffffffffffffffffffffffffffffffffffffff1673ffffffffffffffffffffffffffffffffffffffff168152602001908152602001600020905060005b81805490508110156118205784805190602001208282815481106117a05761179f612e46565b5b90600052602060002090600802016006016040516117be9190613054565b60405180910390200361180d5760008282815481106117e0576117df612e46565b5b906000526020600020906008020160070160006101000a81548160ff021916908315150217905550611820565b808061181890612ea4565b915050611779565b508473ffffffffffffffffffffffffffffffffffffffff167f53b53651d626c49d662f4a3ccc60d4be5b5e717d7a530d0304abb96ae95da4e1856040516118679190612eec565b60405180910390a250611888565b808061188090612ea4565b915050611628565b50505050565b60008054906101000a900473ffffffffffffffffffffffffffffffffffffffff1681565b6060600360008373ffffffffffffffffffffffffffffffffffffffff1673ffffffffffffffffffffffffffffffffffffffff168152602001908152602001600020805480602002602001604051908101604052809291908181526020016000905b82821015611c5f57838290600052602060002090600802016040518061010001604052908160008201805461194790612b97565b80601f016020809104026020016040519081016040528092919081815260200182805461197390612b97565b80156119c05780601f10611995576101008083540402835291602001916119c0565b820191906000526020600020905b8154815290600101906020018083116119a357829003601f168201915b505050505081526020016001820160009054906101000a900473ffffffffffffffffffffffffffffffffffffffff1673ffffffffffffffffffffffffffffffffffffffff1673ffffffffffffffffffffffffffffffffffffffff168152602001600282018054611a2f90612b97565b80601f0160208091040260200160405190810160405280929190818152602001828054611a5b90612b97565b8015611aa85780601f10611a7d57610100808354040283529160200191611aa8565b820191906000526020600020905b815481529060010190602001808311611a8b57829003601f168201915b50505050508152602001600382018054611ac190612b97565b80601f0160208091040260200160405190810160405280929190818152602001828054611aed90612b97565b8015611b3a5780601f10611b0f57610100808354040283529160200191611b3a565b820191906000526020600020905b815481529060010190602001808311611b1d57829003601f168201915b505050505081526020016004820160009054906101000a900473ffffffffffffffffffffffffffffffffffffffff1673ffffffffffffffffffffffffffffffffffffffff1673ffffffffffffffffffffffffffffffffffffffff16815260200160058201548152602001600682018054611bb390612b97565b80601f0160208091040260200160405190810160405280929190818152602001828054611bdf90612b97565b8015611c2c5780601f10611c0157610100808354040283529160200191611c2c565b820191906000526020600020905b815481529060010190602001808311611c0f57829003601f168201915b505050505081526020016007820160009054906101000a900460ff16151515158152505081526020019060010190611913565b505050509050919050565b606060008054906101000a900473ffffffffffffffffffffffffffffffffffffffff1673ffffffffffffffffffffffffffffffffffffffff163373ffffffffffffffffffffffffffffffffffffffff1614611cfa576040517f08c379a0000000000000000000000000000000000000000000000000000000008152600401611cf190612adc565b60405180910390fd5b6000805b600480549050811015611e40576001600060048381548110611d2357611d22612e46565b5b9060005260206000200160009054906101000a900473ffffffffffffffffffffffffffffffffffffffff1673ffffffffffffffffffffffffffffffffffffffff1673ffffffffffffffffffffffffffffffffffffffff16815260200190815260200160002060010160149054906101000a900460ff1615611e2d576002600060048381548110611db657611db5612e46565b5b9060005260206000200160009054906101000a900473ffffffffffffffffffffffffffffffffffffffff1673ffffffffffffffffffffffffffffffffffffffff1673ffffffffffffffffffffffffffffffffffffffff1681526020019081526020016000208054905082611e2a919061306b565b91505b8080611e3890612ea4565b915050611cfe565b5060008167ffffffffffffffff811115611e5d57611e5c6124e1565b5b604051908082528060200260200182016040528015611e9657816020015b611e836123b4565b815260200190600190039081611e7b5790505b5090506000805b6004805490508110156123aa576001600060048381548110611ec257611ec1612e46565b5b9060005260206000200160009054906101000a900473ffffffffffffffffffffffffffffffffffffffff1673ffffffffffffffffffffffffffffffffffffffff1673ffffffffffffffffffffffffffffffffffffffff16815260200190815260200160002060010160149054906101000a900460ff16156123975760006002600060048481548110611f5757611f56612e46565b5b9060005260206000200160009054906101000a900473ffffffffffffffffffffffffffffffffffffffff1673ffffffffffffffffffffffffffffffffffffffff1673ffffffffffffffffffffffffffffffffffffffff168152602001908152602001600020805480602002602001604051908101604052809291908181526020016000905b8282101561232857838290600052602060002090600802016040518061010001604052908160008201805461201090612b97565b80601f016020809104026020016040519081016040528092919081815260200182805461203c90612b97565b80156120895780601f1061205e57610100808354040283529160200191612089565b820191906000526020600020905b81548152906001019060200180831161206c57829003601f168201915b505050505081526020016001820160009054906101000a900473ffffffffffffffffffffffffffffffffffffffff1673ffffffffffffffffffffffffffffffffffffffff1673ffffffffffffffffffffffffffffffffffffffff1681526020016002820180546120f890612b97565b80601f016020809104026020016040519081016040528092919081815260200182805461212490612b97565b80156121715780601f1061214657610100808354040283529160200191612171565b820191906000526020600020905b81548152906001019060200180831161215457829003601f168201915b5050505050815260200160038201805461218a90612b97565b80601f01602080910402602001604051908101604052809291908181526020018280546121b690612b97565b80156122035780601f106121d857610100808354040283529160200191612203565b820191906000526020600020905b8154815290600101906020018083116121e657829003601f168201915b505050505081526020016004820160009054906101000a900473ffffffffffffffffffffffffffffffffffffffff1673ffffffffffffffffffffffffffffffffffffffff1673ffffffffffffffffffffffffffffffffffffffff1681526020016005820154815260200160068201805461227c90612b97565b80601f01602080910402602001604051908101604052809291908181526020018280546122a890612b97565b80156122f55780601f106122ca576101008083540402835291602001916122f5565b820191906000526020600020905b8154815290600101906020018083116122d857829003601f168201915b505050505081526020016007820160009054906101000a900460ff16151515158152505081526020019060010190611fdc565b50505050905060005b81518110156123945781818151811061234d5761234c612e46565b5b602002602001015185858151811061236857612367612e46565b5b6020026020010181905250838061237e90612ea4565b945050808061238c90612ea4565b915050612331565b50505b80806123a290612ea4565b915050611e9d565b5081935050505090565b60405180610100016040528060608152602001600073ffffffffffffffffffffffffffffffffffffffff1681526020016060815260200160608152602001600073ffffffffffffffffffffffffffffffffffffffff16815260200160008152602001606081526020016000151581525090565b6000604051905090565b600080fd5b600080fd5b600073ffffffffffffffffffffffffffffffffffffffff82169050919050565b60006124668261243b565b9050919050565b6124768161245b565b811461248157600080fd5b50565b6000813590506124938161246d565b92915050565b6000602082840312156124af576124ae612431565b5b60006124bd84828501612484565b91505092915050565b600080fd5b600080fd5b6000601f19601f8301169050919050565b7f4e487b7100000000000000000000000000000000000000000000000000000000600052604160045260246000fd5b612519826124d0565b810181811067ffffffffffffffff82111715612538576125376124e1565b5b80604052505050565b600061254b612427565b90506125578282612510565b919050565b600067ffffffffffffffff821115612577576125766124e1565b5b612580826124d0565b9050602081019050919050565b82818337600083830152505050565b60006125af6125aa8461255c565b612541565b9050828152602081018484840111156125cb576125ca6124cb565b5b6125d684828561258d565b509392505050565b600082601f8301126125f3576125f26124c6565b5b813561260384826020860161259c565b91505092915050565b6000806040838503121561262357612622612431565b5b600061263185828601612484565b925050602083013567ffffffffffffffff81111561265257612651612436565b5b61265e858286016125de565b9150509250929050565b600081519050919050565b600082825260208201905092915050565b6000819050602082019050919050565b600081519050919050565b600082825260208201905092915050565b60005b838110156126ce5780820151818401526020810190506126b3565b60008484015250505050565b60006126e582612694565b6126ef818561269f565b93506126ff8185602086016126b0565b612708816124d0565b840191505092915050565b61271c8161245b565b82525050565b6000819050919050565b61273581612722565b82525050565b60008115159050919050565b6127508161273b565b82525050565b600061010083016000830151848203600086015261277482826126da565b91505060208301516127896020860182612713565b50604083015184820360408601526127a182826126da565b915050606083015184820360608601526127bb82826126da565b91505060808301516127d06080860182612713565b5060a08301516127e360a086018261272c565b5060c083015184820360c08601526127fb82826126da565b91505060e083015161281060e0860182612747565b508091505092915050565b60006128278383612756565b905092915050565b6000602082019050919050565b600061284782612668565b6128518185612673565b93508360208202850161286385612684565b8060005b8581101561289f5784840389528151612880858261281b565b945061288b8361282f565b925060208a01995050600181019050612867565b50829750879550505050505092915050565b600060208201905081810360008301526128cb818461283c565b905092915050565b600082825260208201905092915050565b60006128ef82612694565b6128f981856128d3565b93506129098185602086016126b0565b612912816124d0565b840191505092915050565b6129268161245b565b82525050565b6129358161273b565b82525050565b6000606082019050818103600083015261295581866128e4565b9050612964602083018561291d565b612971604083018461292c565b949350505050565b600060208201905061298e600083018461292c565b92915050565b600080600080608085870312156129ae576129ad612431565b5b600085013567ffffffffffffffff8111156129cc576129cb612436565b5b6129d8878288016125de565b94505060206129e987828801612484565b935050604085013567ffffffffffffffff811115612a0a57612a09612436565b5b612a16878288016125de565b925050606085013567ffffffffffffffff811115612a3757612a36612436565b5b612a43878288016125de565b91505092959194509250565b6000602082019050612a64600083018461291d565b92915050565b7f4f6e6c7920636f6e7472616374206f776e65722063616e2063616c6c2074686960008201527f7300000000000000000000000000000000000000000000000000000000000000602082015250565b6000612ac66021836128d3565b9150612ad182612a6a565b604082019050919050565b60006020820190508181036000830152612af581612ab9565b9050919050565b7f4f7267616e697a6174696f6e206e6f7420617070726f76656400000000000000600082015250565b6000612b326019836128d3565b9150612b3d82612afc565b602082019050919050565b60006020820190508181036000830152612b6181612b25565b9050919050565b7f4e487b7100000000000000000000000000000000000000000000000000000000600052602260045260246000fd5b60006002820490506001821680612baf57607f821691505b602082108103612bc257612bc1612b68565b5b50919050565b60008190508160005260206000209050919050565b60006020601f8301049050919050565b600082821b905092915050565b600060088302612c2a7fffffffffffffffffffffffffffffffffffffffffffffffffffffffffffffffff82612bed565b612c348683612bed565b95508019841693508086168417925050509392505050565b6000819050919050565b6000612c71612c6c612c6784612722565b612c4c565b612722565b9050919050565b6000819050919050565b612c8b83612c56565b612c9f612c9782612c78565b848454612bfa565b825550505050565b600090565b612cb4612ca7565b612cbf818484612c82565b505050565b5b81811015612ce357612cd8600082612cac565b600181019050612cc5565b5050565b601f821115612d2857612cf981612bc8565b612d0284612bdd565b81016020851015612d11578190505b612d25612d1d85612bdd565b830182612cc4565b50505b505050565b600082821c905092915050565b6000612d4b60001984600802612d2d565b1980831691505092915050565b6000612d648383612d3a565b9150826002028217905092915050565b612d7d82612694565b67ffffffffffffffff811115612d9657612d956124e1565b5b612da08254612b97565b612dab828285612ce7565b600060209050601f831160018114612dde5760008415612dcc578287015190505b612dd68582612d58565b865550612e3e565b601f198416612dec86612bc8565b60005b82811015612e1457848901518255600182019150602085019450602081019050612def565b86831015612e315784890151612e2d601f891682612d3a565b8355505b6001600288020188555050505b505050505050565b7f4e487b7100000000000000000000000000000000000000000000000000000000600052603260045260246000fd5b7f4e487b7100000000000000000000000000000000000000000000000000000000600052601160045260246000fd5b6000612eaf82612722565b91507fffffffffffffffffffffffffffffffffffffffffffffffffffffffffffffffff8203612ee157612ee0612e75565b5b600182019050919050565b60006020820190508181036000830152612f0681846128e4565b905092915050565b7f4f6e6c7920617070726f766564206f7267732063616e2063616c6c2074686973600082015250565b6000612f446020836128d3565b9150612f4f82612f0e565b602082019050919050565b60006020820190508181036000830152612f7381612f37565b9050919050565b60006040820190508181036000830152612f9481856128e4565b90508181036020830152612fa881846128e4565b90509392505050565b600081905092915050565b60008190508160005260206000209050919050565b60008154612fde81612b97565b612fe88186612fb1565b9450600182166000811461300357600181146130185761304b565b60ff198316865281151582028601935061304b565b61302185612fbc565b60005b8381101561304357815481890152600182019150602081019050613024565b838801955050505b50505092915050565b60006130608284612fd1565b915081905092915050565b600061307682612722565b915061308183612722565b925082820190508082111561309957613098612e75565b5b9291505056fea2646970667358221220327754e5d76efdd87b2dcb68c5fb11477f80fc535b27d6a4a1b3b5c12fe6703764736f6c63430008140033",
  "linkReferences": {},
  "deployedLinkReferences": {}
}