{
  "_format": "hh-sol-artifact-1",
  "contractName": "AuthenX",
  "sourceName": "contracts/AuthenX.sol",
  "abi": [
    {
      "inputs": [],
      "stateMutability": "nonpayable",
      "type": "constructor"
    },
    {
      "anonymous": false,
      "inputs": [
        {
          "indexed": true,
          "internalType": "address",
          "name": "personWallet",
          "type": "address"
        },
        {
          "indexed": true,
          "internalType": "address",
          "name": "orgWallet",
          "type": "address"
        },
        {
          "indexed": false,
          "internalType": "string",
          "name": "docType",
          "type": "string"
        },
        {
          "indexed": false,
          "internalType": "string",
          "name": "docHash",
          "type": "string"
        }
      ],
      "name": "DocumentIssued",
      "type": "event"
    },
    {
      "anonymous": false,
      "inputs": [
        {
          "indexed": true,
          "internalType": "address",
          "name": "personWallet",
          "type": "address"
        },
        {
          "indexed": false,
          "internalType": "string",
          "name": "docHash",
          "type": "string"
        }
      ],
      "name": "DocumentRevoked",
      "type": "event"
    },
    {
      "anonymous": false,
      "inputs": [
        {
          "indexed": true,
          "internalType": "address",
          "name": "orgWallet",
          "type": "address"
        },
        {
          "indexed": false,
          "internalType": "string",
          "name": "name",
          "type": "string"
        }
      ],
      "name": "OrgApproved",
      "type": "event"
    },
    {
      "anonymous": false,
      "inputs": [
        {
          "indexed": true,
          "internalType": "address",
          "name": "orgWallet",
          "type": "address"
        }
      ],
      "name": "OrgRevoked",
      "type": "event"
    },
    {
      "inputs": [
        {
          "internalType": "address",
          "name": "_orgWallet",
          "type": "address"
        },
        {
          "internalType": "string",
          "name": "_orgName",
          "type": "string"
        }
      ],
      "name": "approveOrg",
      "outputs": [],
      "stateMutability": "nonpayable",
      "type": "function"
    },
    {
      "inputs": [
        {
          "internalType": "address[]",
          "name": "_orgWallets",
          "type": "address[]"
        }
      ],
      "name": "getAllDocuments",
      "outputs": [
        {
          "components": [
            {
              "internalType": "string",
              "name": "personName",
              "type": "string"
            },
            {
              "internalType": "address",
              "name": "personWallet",
              "type": "address"
            },
            {
              "internalType": "string",
              "name": "docType",
              "type": "string"
            },
            {
              "internalType": "string",
              "name": "orgName",
              "type": "string"
            },
            {
              "internalType": "address",
              "name": "orgWallet",
              "type": "address"
            },
            {
              "internalType": "uint256",
              "name": "issuedAt",
              "type": "uint256"
            },
            {
              "internalType": "string",
              "name": "docHash",
              "type": "string"
            },
            {
              "internalType": "bool",
              "name": "valid",
              "type": "bool"
            }
          ],
          "internalType": "struct AuthenX.Document[]",
          "name": "",
          "type": "tuple[]"
        }
      ],
      "stateMutability": "view",
      "type": "function"
    },
    {
      "inputs": [
        {
          "internalType": "address",
          "name": "_orgWallet",
          "type": "address"
        }
      ],
      "name": "getDocumentsByOrg",
      "outputs": [
        {
          "components": [
            {
              "internalType": "string",
              "name": "personName",
              "type": "string"
            },
            {
              "internalType": "address",
              "name": "personWallet",
              "type": "address"
            },
            {
              "internalType": "string",
              "name": "docType",
              "type": "string"
            },
            {
              "internalType": "string",
              "name": "orgName",
              "type": "string"
            },
            {
              "internalType": "address",
              "name": "orgWallet",
              "type": "address"
            },
            {
              "internalType": "uint256",
              "name": "issuedAt",
              "type": "uint256"
            },
            {
              "internalType": "string",
              "name": "docHash",
              "type": "string"
            },
            {
              "internalType": "bool",
              "name": "valid",
              "type": "bool"
            }
          ],
          "internalType": "struct AuthenX.Document[]",
          "name": "",
          "type": "tuple[]"
        }
      ],
      "stateMutability": "view",
      "type": "function"
    },
    {
      "inputs": [
        {
          "internalType": "address",
          "name": "_personWallet",
          "type": "address"
        }
      ],
      "name": "getDocumentsByPerson",
      "outputs": [
        {
          "components": [
            {
              "internalType": "string",
              "name": "personName",
              "type": "string"
            },
            {
              "internalType": "address",
              "name": "personWallet",
              "type": "address"
            },
            {
              "internalType": "string",
              "name": "docType",
              "type": "string"
            },
            {
              "internalType": "string",
              "name": "orgName",
              "type": "string"
            },
            {
              "internalType": "address",
              "name": "orgWallet",
              "type": "address"
            },
            {
              "internalType": "uint256",
              "name": "issuedAt",
              "type": "uint256"
            },
            {
              "internalType": "string",
              "name": "docHash",
              "type": "string"
            },
            {
              "internalType": "bool",
              "name": "valid",
              "type": "bool"
            }
          ],
          "internalType": "struct AuthenX.Document[]",
          "name": "",
          "type": "tuple[]"
        }
      ],
      "stateMutability": "view",
      "type": "function"
    },
    {
      "inputs": [
        {
          "internalType": "string",
          "name": "_personName",
          "type": "string"
        },
        {
          "internalType": "address",
          "name": "_personWallet",
          "type": "address"
        },
        {
          "internalType": "string",
          "name": "_docType",
          "type": "string"
        },
        {
          "internalType": "string",
          "name": "_docHash",
          "type": "string"
        }
      ],
      "name": "issueDocument",
      "outputs": [],
      "stateMutability": "nonpayable",
      "type": "function"
    },
    {
      "inputs": [
        {
          "internalType": "address",
          "name": "",
          "type": "address"
        }
      ],
      "name": "organizations",
      "outputs": [
        {
          "internalType": "string",
          "name": "name",
          "type": "string"
        },
        {
          "internalType": "address",
          "name": "wallet",
          "type": "address"
        },
        {
          "internalType": "bool",
          "name": "approved",
          "type": "bool"
        }
      ],
      "stateMutability": "view",
      "type": "function"
    },
    {
      "inputs": [],
      "name": "owner",
      "outputs": [
        {
          "internalType": "address",
          "name": "",
          "type": "address"
        }
      ],
      "stateMutability": "view",
      "type": "function"
    },
    {
      "inputs": [
        {
          "internalType": "address",
          "name": "_personWallet",
          "type": "address"
        },
        {
          "internalType": "string",
          "name": "_docHash",
          "type": "string"
        }
      ],
      "name": "revokeDocument",
      "outputs": [],
      "stateMutability": "nonpayable",
      "type": "function"
    },
    {
      "inputs": [
        {
          "internalType": "address",
          "name": "_orgWallet",
          "type": "address"
        }
      ],
      "name": "revokeOrg",
      "outputs": [],
      "stateMutability": "nonpayable",
      "type": "function"
    },
    {
      "inputs": [
        {
          "internalType": "address",
          "name": "_personWallet",
          "type": "address"
        },
        {
          "internalType": "string",
          "name": "_docHash",
          "type": "string"
        }
      ],
      "name": "verifyDocument",
      "outputs": [
        {
          "internalType": "bool",
          "name": "",
          "type": "bool"
        }
      ],
      "stateMutability": "view",
      "type": "function"
    }
  ],
  "bytecode": "0x608060405234801561001057600080fd5b50336000806101000a81548173ffffffffffffffffffffffffffffffffffffffff021916908373ffffffffffffffffffffffffffffffffffffffff160217905550612f79806100606000396000f3fe608060405234801561001057600080fd5b506004361061009e5760003560e01c806368973b6c1161006657806368973b6c1461016d578063751f310a1461019d5780637dc9704a146101b95780638da5cb5b146101d5578063911beb94146101f35761009e565b806317cc3d86146100a35780632f4895d8146100bf57806354868ffa146100db5780635a1f74061461010b578063641ee9d51461013d575b600080fd5b6100bd60048036038101906100b8919061222c565b610223565b005b6100d960048036038101906100d4919061239f565b6103e8565b005b6100f560048036038101906100f0919061222c565b6105bb565b6040516101029190612644565b60405180910390f35b6101256004803603810190610120919061222c565b610973565b604051610134939291906126ce565b60405180910390f35b6101576004803603810190610152919061239f565b610a52565b604051610164919061270c565b60405180910390f35b610187600480360381019061018291906127ef565b610e98565b6040516101949190612644565b60405180910390f35b6101b760048036038101906101b29190612838565b61146c565b005b6101d360048036038101906101ce919061239f565b611a29565b005b6101dd611d6b565b6040516101ea91906128f3565b60405180910390f35b61020d6004803603810190610208919061222c565b611d8f565b60405161021a9190612644565b60405180910390f35b60008054906101000a900473ffffffffffffffffffffffffffffffffffffffff1673ffffffffffffffffffffffffffffffffffffffff163373ffffffffffffffffffffffffffffffffffffffff16146102b1576040517f08c379a00000000000000000000000000000000000000000000000000000000081526004016102a890612980565b60405180910390fd5b60011515600160008373ffffffffffffffffffffffffffffffffffffffff1673ffffffffffffffffffffffffffffffffffffffff16815260200190815260200160002060010160149054906101000a900460ff16151514610347576040517f08c379a000000000000000000000000000000000000000000000000000000000815260040161033e906129ec565b60405180910390fd5b6000600160008373ffffffffffffffffffffffffffffffffffffffff1673ffffffffffffffffffffffffffffffffffffffff16815260200190815260200160002060010160146101000a81548160ff0219169083151502179055508073ffffffffffffffffffffffffffffffffffffffff167f3d612f610cda5956ab1c81ba03e65f38ef48ace98936fc6568d5affab3b05da460405160405180910390a250565b60008054906101000a900473ffffffffffffffffffffffffffffffffffffffff1673ffffffffffffffffffffffffffffffffffffffff163373ffffffffffffffffffffffffffffffffffffffff1614610476576040517f08c379a000000000000000000000000000000000000000000000000000000000815260040161046d90612980565b60405180910390fd5b60405180606001604052808281526020018373ffffffffffffffffffffffffffffffffffffffff16815260200160011515815250600160008473ffffffffffffffffffffffffffffffffffffffff1673ffffffffffffffffffffffffffffffffffffffff16815260200190815260200160002060008201518160000190816104fe9190612c18565b5060208201518160010160006101000a81548173ffffffffffffffffffffffffffffffffffffffff021916908373ffffffffffffffffffffffffffffffffffffffff16021790555060408201518160010160146101000a81548160ff0219169083151502179055509050508173ffffffffffffffffffffffffffffffffffffffff167fdaea8d45f0f994681bf5879ac0023ee819673ddce879a2cfbca58961e7208472826040516105af9190612cea565b60405180910390a25050565b6060600260008373ffffffffffffffffffffffffffffffffffffffff1673ffffffffffffffffffffffffffffffffffffffff168152602001908152602001600020805480602002602001604051908101604052809291908181526020016000905b8282101561096857838290600052602060002090600802016040518061010001604052908160008201805461065090612a3b565b80601f016020809104026020016040519081016040528092919081815260200182805461067c90612a3b565b80156106c95780601f1061069e576101008083540402835291602001916106c9565b820191906000526020600020905b8154815290600101906020018083116106ac57829003601f168201915b505050505081526020016001820160009054906101000a900473ffffffffffffffffffffffffffffffffffffffff1673ffffffffffffffffffffffffffffffffffffffff1673ffffffffffffffffffffffffffffffffffffffff16815260200160028201805461073890612a3b565b80601f016020809104026020016040519081016040528092919081815260200182805461076490612a3b565b80156107b15780601f10610786576101008083540402835291602001916107b1565b820191906000526020600020905b81548152906001019060200180831161079457829003601f168201915b505050505081526020016003820180546107ca90612a3b565b80601f01602080910402602001604051908101604052809291908181526020018280546107f690612a3b565b80156108435780601f1061081857610100808354040283529160200191610843565b820191906000526020600020905b81548152906001019060200180831161082657829003601f168201915b505050505081526020016004820160009054906101000a900473ffffffffffffffffffffffffffffffffffffffff1673ffffffffffffffffffffffffffffffffffffffff1673ffffffffffffffffffffffffffffffffffffffff168152602001600582015481526020016006820180546108bc90612a3b565b80601f01602080910402602001604051908101604052809291908181526020018280546108e890612a3b565b80156109355780601f1061090a57610100808354040283529160200191610935565b820191906000526020600020905b81548152906001019060200180831161091857829003601f168201915b505050505081526020016007820160009054906101000a900460ff1615151515815250508152602001906001019061061c565b505050509050919050565b600160205280600052604060002060009150905080600001805461099690612a3b565b80601f01602080910402602001604051908101604052809291908181526020018280546109c290612a3b565b8015610a0f5780601f106109e457610100808354040283529160200191610a0f565b820191906000526020600020905b8154815290600101906020018083116109f257829003601f168201915b5050505050908060010160009054906101000a900473ffffffffffffffffffffffffffffffffffffffff16908060010160149054906101000a900460ff16905083565b600080600360008573ffffffffffffffffffffffffffffffffffffffff1673ffffffffffffffffffffffffffffffffffffffff168152602001908152602001600020805480602002602001604051908101604052809291908181526020016000905b82821015610e00578382906000526020600020906008020160405180610100016040529081600082018054610ae890612a3b565b80601f0160208091040260200160405190810160405280929190818152602001828054610b1490612a3b565b8015610b615780601f10610b3657610100808354040283529160200191610b61565b820191906000526020600020905b815481529060010190602001808311610b4457829003601f168201915b505050505081526020016001820160009054906101000a900473ffffffffffffffffffffffffffffffffffffffff1673ffffffffffffffffffffffffffffffffffffffff1673ffffffffffffffffffffffffffffffffffffffff168152602001600282018054610bd090612a3b565b80601f0160208091040260200160405190810160405280929190818152602001828054610bfc90612a3b565b8015610c495780601f10610c1e57610100808354040283529160200191610c49565b820191906000526020600020905b815481529060010190602001808311610c2c57829003601f168201915b50505050508152602001600382018054610c6290612a3b565b80601f0160208091040260200160405190810160405280929190818152602001828054610c8e90612a3b565b8015610cdb5780601f10610cb057610100808354040283529160200191610cdb565b820191906000526020600020905b815481529060010190602001808311610cbe57829003601f168201915b505050505081526020016004820160009054906101000a900473ffffffffffffffffffffffffffffffffffffffff1673ffffffffffffffffffffffffffffffffffffffff1673ffffffffffffffffffffffffffffffffffffffff16815260200160058201548152602001600682018054610d5490612a3b565b80601f0160208091040260200160405190810160405280929190818152602001828054610d8090612a3b565b8015610dcd5780601f10610da257610100808354040283529160200191610dcd565b820191906000526020600020905b815481529060010190602001808311610db057829003601f168201915b505050505081526020016007820160009054906101000a900460ff16151515158152505081526020019060010190610ab4565b50505050905060005b8151811015610e8b578380519060200120828281518110610e2d57610e2c612d0c565b5b602002602001015160c0015180519060200120148015610e685750818181518110610e5b57610e5a612d0c565b5b602002602001015160e001515b15610e7857600192505050610e92565b8080610e8390612d6a565b915050610e09565b5060009150505b92915050565b606060008054906101000a900473ffffffffffffffffffffffffffffffffffffffff1673ffffffffffffffffffffffffffffffffffffffff163373ffffffffffffffffffffffffffffffffffffffff1614610f28576040517f08c379a0000000000000000000000000000000000000000000000000000000008152600401610f1f90612980565b60405180910390fd5b6000805b8351811015610fb25760026000858381518110610f4c57610f4b612d0c565b5b602002602001015173ffffffffffffffffffffffffffffffffffffffff1673ffffffffffffffffffffffffffffffffffffffff1681526020019081526020016000208054905082610f9d9190612db2565b91508080610faa90612d6a565b915050610f2c565b5060008167ffffffffffffffff811115610fcf57610fce612274565b5b60405190808252806020026020018201604052801561100857816020015b610ff5612147565b815260200190600190039081610fed5790505b5090506000805b85518110156114605760006002600088848151811061103157611030612d0c565b5b602002602001015173ffffffffffffffffffffffffffffffffffffffff1673ffffffffffffffffffffffffffffffffffffffff168152602001908152602001600020805480602002602001604051908101604052809291908181526020016000905b828210156113df5783829060005260206000209060080201604051806101000160405290816000820180546110c790612a3b565b80601f01602080910402602001604051908101604052809291908181526020018280546110f390612a3b565b80156111405780601f1061111557610100808354040283529160200191611140565b820191906000526020600020905b81548152906001019060200180831161112357829003601f168201915b505050505081526020016001820160009054906101000a900473ffffffffffffffffffffffffffffffffffffffff1673ffffffffffffffffffffffffffffffffffffffff1673ffffffffffffffffffffffffffffffffffffffff1681526020016002820180546111af90612a3b565b80601f01602080910402602001604051908101604052809291908181526020018280546111db90612a3b565b80156112285780601f106111fd57610100808354040283529160200191611228565b820191906000526020600020905b81548152906001019060200180831161120b57829003601f168201915b5050505050815260200160038201805461124190612a3b565b80601f016020809104026020016040519081016040528092919081815260200182805461126d90612a3b565b80156112ba5780601f1061128f576101008083540402835291602001916112ba565b820191906000526020600020905b81548152906001019060200180831161129d57829003601f168201915b505050505081526020016004820160009054906101000a900473ffffffffffffffffffffffffffffffffffffffff1673ffffffffffffffffffffffffffffffffffffffff1673ffffffffffffffffffffffffffffffffffffffff1681526020016005820154815260200160068201805461133390612a3b565b80601f016020809104026020016040519081016040528092919081815260200182805461135f90612a3b565b80156113ac5780601f10611381576101008083540402835291602001916113ac565b820191906000526020600020905b81548152906001019060200180831161138f57829003601f168201915b505050505081526020016007820160009054906101000a900460ff16151515158152505081526020019060010190611093565b50505050905060005b815181101561144b5781818151811061140457611403612d0c565b5b602002602001015185858151811061141f5761141e612d0c565b5b6020026020010181905250838061143590612d6a565b945050808061144390612d6a565b9150506113e8565b5050808061145890612d6a565b91505061100f565b50819350505050919050565b60011515600160003373ffffffffffffffffffffffffffffffffffffffff1673ffffffffffffffffffffffffffffffffffffffff16815260200190815260200160002060010160149054906101000a900460ff16151514611502576040517f08c379a00000000000000000000000000000000000000000000000000000000081526004016114f990612e32565b60405180910390fd5b6000600160003373ffffffffffffffffffffffffffffffffffffffff1673ffffffffffffffffffffffffffffffffffffffff16815260200190815260200160002060405180606001604052908160008201805461155e90612a3b565b80601f016020809104026020016040519081016040528092919081815260200182805461158a90612a3b565b80156115d75780601f106115ac576101008083540402835291602001916115d7565b820191906000526020600020905b8154815290600101906020018083116115ba57829003601f168201915b505050505081526020016001820160009054906101000a900473ffffffffffffffffffffffffffffffffffffffff1673ffffffffffffffffffffffffffffffffffffffff1673ffffffffffffffffffffffffffffffffffffffff1681526020016001820160149054906101000a900460ff161515151581525050905060006040518061010001604052808781526020018673ffffffffffffffffffffffffffffffffffffffff168152602001858152602001836000015181526020013373ffffffffffffffffffffffffffffffffffffffff168152602001428152602001848152602001600115158152509050600260003373ffffffffffffffffffffffffffffffffffffffff1673ffffffffffffffffffffffffffffffffffffffff16815260200190815260200160002081908060018154018082558091505060019003906000526020600020906008020160009091909190915060008201518160000190816117429190612c18565b5060208201518160010160006101000a81548173ffffffffffffffffffffffffffffffffffffffff021916908373ffffffffffffffffffffffffffffffffffffffff160217905550604082015181600201908161179f9190612c18565b5060608201518160030190816117b59190612c18565b5060808201518160040160006101000a81548173ffffffffffffffffffffffffffffffffffffffff021916908373ffffffffffffffffffffffffffffffffffffffff16021790555060a0820151816005015560c082015181600601908161181c9190612c18565b5060e08201518160070160006101000a81548160ff0219169083151502179055505050600360008673ffffffffffffffffffffffffffffffffffffffff1673ffffffffffffffffffffffffffffffffffffffff16815260200190815260200160002081908060018154018082558091505060019003906000526020600020906008020160009091909190915060008201518160000190816118bd9190612c18565b5060208201518160010160006101000a81548173ffffffffffffffffffffffffffffffffffffffff021916908373ffffffffffffffffffffffffffffffffffffffff160217905550604082015181600201908161191a9190612c18565b5060608201518160030190816119309190612c18565b5060808201518160040160006101000a81548173ffffffffffffffffffffffffffffffffffffffff021916908373ffffffffffffffffffffffffffffffffffffffff16021790555060a0820151816005015560c08201518160060190816119979190612c18565b5060e08201518160070160006101000a81548160ff02191690831515021790555050503373ffffffffffffffffffffffffffffffffffffffff168573ffffffffffffffffffffffffffffffffffffffff167fb28aab4f3e2f5814d80501aba778b6b48691c1500daadf2e45aea6f931b89d718686604051611a19929190612e52565b60405180910390a3505050505050565b60011515600160003373ffffffffffffffffffffffffffffffffffffffff1673ffffffffffffffffffffffffffffffffffffffff16815260200190815260200160002060010160149054906101000a900460ff16151514611abf576040517f08c379a0000000000000000000000000000000000000000000000000000000008152600401611ab690612e32565b60405180910390fd5b6000600360008473ffffffffffffffffffffffffffffffffffffffff1673ffffffffffffffffffffffffffffffffffffffff168152602001908152602001600020905060005b8180549050811015611d65578280519060200120828281548110611b2c57611b2b612d0c565b5b9060005260206000209060080201600601604051611b4a9190612f2c565b6040518091039020148015611bce57503373ffffffffffffffffffffffffffffffffffffffff16828281548110611b8457611b83612d0c565b5b906000526020600020906008020160040160009054906101000a900473ffffffffffffffffffffffffffffffffffffffff1673ffffffffffffffffffffffffffffffffffffffff16145b15611d52576000828281548110611be857611be7612d0c565b5b906000526020600020906008020160070160006101000a81548160ff0219169083151502179055506000600260003373ffffffffffffffffffffffffffffffffffffffff1673ffffffffffffffffffffffffffffffffffffffff168152602001908152602001600020905060005b8180549050811015611cfd578480519060200120828281548110611c7d57611c7c612d0c565b5b9060005260206000209060080201600601604051611c9b9190612f2c565b604051809103902003611cea576000828281548110611cbd57611cbc612d0c565b5b906000526020600020906008020160070160006101000a81548160ff021916908315150217905550611cfd565b8080611cf590612d6a565b915050611c56565b508473ffffffffffffffffffffffffffffffffffffffff167f53b53651d626c49d662f4a3ccc60d4be5b5e717d7a530d0304abb96ae95da4e185604051611d449190612cea565b60405180910390a250611d65565b8080611d5d90612d6a565b915050611b05565b50505050565b60008054906101000a900473ffffffffffffffffffffffffffffffffffffffff1681565b6060600360008373ffffffffffffffffffffffffffffffffffffffff1673ffffffffffffffffffffffffffffffffffffffff168152602001908152602001600020805480602002602001604051908101604052809291908181526020016000905b8282101561213c578382906000526020600020906008020160405180610100016040529081600082018054611e2490612a3b565b80601f0160208091040260200160405190810160405280929190818152602001828054611e5090612a3b565b8015611e9d5780601f10611e7257610100808354040283529160200191611e9d565b820191906000526020600020905b815481529060010190602001808311611e8057829003601f168201915b505050505081526020016001820160009054906101000a900473ffffffffffffffffffffffffffffffffffffffff1673ffffffffffffffffffffffffffffffffffffffff1673ffffffffffffffffffffffffffffffffffffffff168152602001600282018054611f0c90612a3b565b80601f0160208091040260200160405190810160405280929190818152602001828054611f3890612a3b565b8015611f855780601f10611f5a57610100808354040283529160200191611f85565b820191906000526020600020905b815481529060010190602001808311611f6857829003601f168201915b50505050508152602001600382018054611f9e90612a3b565b80601f0160208091040260200160405190810160405280929190818152602001828054611fca90612a3b565b80156120175780601f10611fec57610100808354040283529160200191612017565b820191906000526020600020905b815481529060010190602001808311611ffa57829003601f168201915b505050505081526020016004820160009054906101000a900473ffffffffffffffffffffffffffffffffffffffff1673ffffffffffffffffffffffffffffffffffffffff1673ffffffffffffffffffffffffffffffffffffffff1681526020016005820154815260200160068201805461209090612a3b565b80601f01602080910402602001604051908101604052809291908181526020018280546120bc90612a3b565b80156121095780601f106120de57610100808354040283529160200191612109565b820191906000526020600020905b8154815290600101906020018083116120ec57829003601f168201915b505050505081526020016007820160009054906101000a900460ff16151515158152505081526020019060010190611df0565b505050509050919050565b60405180610100016040528060608152602001600073ffffffffffffffffffffffffffffffffffffffff1681526020016060815260200160608152602001600073ffffffffffffffffffffffffffffffffffffffff16815260200160008152602001606081526020016000151581525090565b6000604051905090565b600080fd5b600080fd5b600073ffffffffffffffffffffffffffffffffffffffff82169050919050565b60006121f9826121ce565b9050919050565b612209816121ee565b811461221457600080fd5b50565b60008135905061222681612200565b92915050565b600060208284031215612242576122416121c4565b5b600061225084828501612217565b91505092915050565b600080fd5b600080fd5b6000601f19601f8301169050919050565b7f4e487b7100000000000000000000000000000000000000000000000000000000600052604160045260246000fd5b6122ac82612263565b810181811067ffffffffffffffff821117156122cb576122ca612274565b5b80604052505050565b60006122de6121ba565b90506122ea82826122a3565b919050565b600067ffffffffffffffff82111561230a57612309612274565b5b61231382612263565b9050602081019050919050565b82818337600083830152505050565b600061234261233d846122ef565b6122d4565b90508281526020810184848401111561235e5761235d61225e565b5b612369848285612320565b509392505050565b600082601f83011261238657612385612259565b5b813561239684826020860161232f565b91505092915050565b600080604083850312156123b6576123b56121c4565b5b60006123c485828601612217565b925050602083013567ffffffffffffffff8111156123e5576123e46121c9565b5b6123f185828601612371565b9150509250929050565b600081519050919050565b600082825260208201905092915050565b6000819050602082019050919050565b600081519050919050565b600082825260208201905092915050565b60005b83811015612461578082015181840152602081019050612446565b60008484015250505050565b600061247882612427565b6124828185612432565b9350612492818560208601612443565b61249b81612263565b840191505092915050565b6124af816121ee565b82525050565b6000819050919050565b6124c8816124b5565b82525050565b60008115159050919050565b6124e3816124ce565b82525050565b6000610100830160008301518482036000860152612507828261246d565b915050602083015161251c60208601826124a6565b5060408301518482036040860152612534828261246d565b9150506060830151848203606086015261254e828261246d565b915050608083015161256360808601826124a6565b5060a083015161257660a08601826124bf565b5060c083015184820360c086015261258e828261246d565b91505060e08301516125a360e08601826124da565b508091505092915050565b60006125ba83836124e9565b905092915050565b6000602082019050919050565b60006125da826123fb565b6125e48185612406565b9350836020820285016125f685612417565b8060005b85811015612632578484038952815161261385826125ae565b945061261e836125c2565b925060208a019950506001810190506125fa565b50829750879550505050505092915050565b6000602082019050818103600083015261265e81846125cf565b905092915050565b600082825260208201905092915050565b600061268282612427565b61268c8185612666565b935061269c818560208601612443565b6126a581612263565b840191505092915050565b6126b9816121ee565b82525050565b6126c8816124ce565b82525050565b600060608201905081810360008301526126e88186612677565b90506126f760208301856126b0565b61270460408301846126bf565b949350505050565b600060208201905061272160008301846126bf565b92915050565b600067ffffffffffffffff82111561274257612741612274565b5b602082029050602081019050919050565b600080fd5b600061276b61276684612727565b6122d4565b9050808382526020820190506020840283018581111561278e5761278d612753565b5b835b818110156127b757806127a38882612217565b845260208401935050602081019050612790565b5050509392505050565b600082601f8301126127d6576127d5612259565b5b81356127e6848260208601612758565b91505092915050565b600060208284031215612805576128046121c4565b5b600082013567ffffffffffffffff811115612823576128226121c9565b5b61282f848285016127c1565b91505092915050565b60008060008060808587031215612852576128516121c4565b5b600085013567ffffffffffffffff8111156128705761286f6121c9565b5b61287c87828801612371565b945050602061288d87828801612217565b935050604085013567ffffffffffffffff8111156128ae576128ad6121c9565b5b6128ba87828801612371565b925050606085013567ffffffffffffffff8111156128db576128da6121c9565b5b6128e787828801612371565b91505092959194509250565b600060208201905061290860008301846126b0565b92915050565b7f4f6e6c7920636f6e7472616374206f776e65722063616e2063616c6c2074686960008201527f7300000000000000000000000000000000000000000000000000000000000000602082015250565b600061296a602183612666565b91506129758261290e565b604082019050919050565b600060208201905081810360008301526129998161295d565b9050919050565b7f4f7267616e697a6174696f6e206e6f7420617070726f76656400000000000000600082015250565b60006129d6601983612666565b91506129e1826129a0565b602082019050919050565b60006020820190508181036000830152612a05816129c9565b9050919050565b7f4e487b7100000000000000000000000000000000000000000000000000000000600052602260045260246000fd5b60006002820490506001821680612a5357607f821691505b602082108103612a6657612a65612a0c565b5b50919050565b60008190508160005260206000209050919050565b60006020601f8301049050919050565b600082821b905092915050565b600060088302612ace7fffffffffffffffffffffffffffffffffffffffffffffffffffffffffffffffff82612a91565b612ad88683612a91565b95508019841693508086168417925050509392505050565b6000819050919050565b6000612b15612b10612b0b846124b5565b612af0565b6124b5565b9050919050565b6000819050919050565b612b2f83612afa565b612b43612b3b82612b1c565b848454612a9e565b825550505050565b600090565b612b58612b4b565b612b63818484612b26565b505050565b5b81811015612b8757612b7c600082612b50565b600181019050612b69565b5050565b601f821115612bcc57612b9d81612a6c565b612ba684612a81565b81016020851015612bb5578190505b612bc9612bc185612a81565b830182612b68565b50505b505050565b600082821c905092915050565b6000612bef60001984600802612bd1565b1980831691505092915050565b6000612c088383612bde565b9150826002028217905092915050565b612c2182612427565b67ffffffffffffffff811115612c3a57612c39612274565b5b612c448254612a3b565b612c4f828285612b8b565b600060209050601f831160018114612c825760008415612c70578287015190505b612c7a8582612bfc565b865550612ce2565b601f198416612c9086612a6c565b60005b82811015612cb857848901518255600182019150602085019450602081019050612c93565b86831015612cd55784890151612cd1601f891682612bde565b8355505b6001600288020188555050505b505050505050565b60006020820190508181036000830152612d048184612677565b905092915050565b7f4e487b7100000000000000000000000000000000000000000000000000000000600052603260045260246000fd5b7f4e487b7100000000000000000000000000000000000000000000000000000000600052601160045260246000fd5b6000612d75826124b5565b91507fffffffffffffffffffffffffffffffffffffffffffffffffffffffffffffffff8203612da757612da6612d3b565b5b600182019050919050565b6000612dbd826124b5565b9150612dc8836124b5565b9250828201905080821115612de057612ddf612d3b565b5b92915050565b7f4f6e6c7920617070726f766564206f7267732063616e2063616c6c2074686973600082015250565b6000612e1c602083612666565b9150612e2782612de6565b602082019050919050565b60006020820190508181036000830152612e4b81612e0f565b9050919050565b60006040820190508181036000830152612e6c8185612677565b90508181036020830152612e808184612677565b90509392505050565b600081905092915050565b60008190508160005260206000209050919050565b60008154612eb681612a3b565b612ec08186612e89565b94506001821660008114612edb5760018114612ef057612f23565b60ff1983168652811515820286019350612f23565b612ef985612e94565b60005b83811015612f1b57815481890152600182019150602081019050612efc565b838801955050505b50505092915050565b6000612f388284612ea9565b91508190509291505056fea2646970667358221220fb26170d8cb5aae31881249a5ada57cd3c8e95c045ec66a3aa3bd7555b42b2dc64736f6c63430008140033",
  "linkReferences": {},
  "deployedLinkReferences": {}
}